:020000040800F2
:100000003807002089010008ED1A000827190008A8
:10001000E91A00088F020008891F0008000000008C
:100020000000000000000000000000001D1B000890
:10003000A103000800000000F11A00081F1B0008BF
:10004000A3010008A3010008A3010008A301000800
:10005000A3010008A3010008A3010008A3010008F0
:10006000A3010008A3010008A3010008A3010008E0
:10007000A3010008A3010008A3010008A3010008D0
:10008000A3010008A3010008A3010008A3010008C0
:10009000A3010008A3010008A3010008A3010008B0
:1000A000A30100088D1B0008A3010008A30100089C
:1000B000A3010008A3010008A3010008A301000890
:1000C000A3010008A3010008A3010008A301000880
:1000D000A3010008791F0008A3010008A30100087C
:1000E000A3010008A3010008A301000800F002F822
:1000F00000F03AF80AA090E8000C82448344AAF188
:100100000107DA4501D100F02FF8AFF2090EBAE885
:100110000F0013F0010F18BFFB1A43F0010318473B
:10012000201F0000401F0000103A24BF78C878C18B
:10013000FAD8520724BF30C830C144BF04680C60ED
:10014000704700000023002400250026103A28BF35
:1001500078C1FBD8520728BF30C148BF0B60704739
:100160001FB51FBD10B510BD00F058F81146FFF7C0
:10017000F7FF01F03FFF00F076F803B4FFF7F2FF5E
:1001800003BC00F07DF8000009488047094800479B
:10019000FEE7FEE7FEE7FEE7FEE7FEE7FEE7FEE737
:1001A000FEE7FEE704480549054A064B7047000094
:1001B0008B1B0008ED0000083801002038070020E4
:1001C00038030020380300204FF0000200B513462A
:1001D00094469646203922BFA0E80C50A0E80C5067
:1001E000B1F12001BFF4F7AF090728BFA0E80C5018
:1001F00048BF0CC05DF804EB890028BF40F8042B11
:1002000008BF704748BF20F8022B11F0804F18BF7D
:1002100000F8012B7047704770477047754600F033
:100220002BF8AE4605006946534620F00700854688
:1002300018B020B5FFF7B6FFBDE820404FF000062C
:100240004FF000074FF000084FF0000B21F00701BE
:10025000AC46ACE8C009ACE8C009ACE8C009ACE801
:10026000C0098D46704710B50446AFF300802046A4
:10027000BDE81040FFF781BF00487047D80000205C
:1002800001491820ABBEFEE726000200704700BF00
:10029000FEE700001FB54FF4E050009001200190F0
:1002A0000320039069460D4800F002F900219020D8
:1002B00000F03CF800224FF48051084800F092FA18
:1002C00000224FF48061054800F08CFA0448006871
:1002D00040F00100024908601FBD00000008014015
:1002E000001000E070B5044600251AE004F0010299
:1002F0004FF400610C4800F075FA012291020A489F
:1003000000F070FA012001F05DFE00224FF48061E0
:10031000054800F067FA012001F054FE6410681CE3
:10032000C5B2082DE2DB70BD0008014070B506467D
:100330000C4601221103194800F054FA3046FFF729
:10034000D1FF00251AE004F001024FF400611348C8
:1003500000F048FA01229102104800F043FA01200F
:1003600001F030FE00224FF480610C4800F03AFAB0
:10037000012001F027FE6410681CC5B2082DE2DBE5
:1003800000224FF48051054800F02CFA00224FF46F
:100390000061024800F026FA70BD0000000801402C
:1003A000704772B600BFFEE70146002291F82100B7
:1003B000022808D00420886300BF002081F82000B4
:1003C00000BF012070470868006820F00E000B682D
:1003D00018600868006820F001000B68186091F848
:1003E000403001209840CB6B5860012081F82100FB
:1003F00000BF002081F8200000BF1046E2E70000A7
:1004000070B50446002594F82100022803D004208A
:10041000A063012548E02068006820F00E002168F4
:1004200008602068006820F00100216808601F490A
:100430002068884201D1012026E01C49143120683F
:10044000884201D110201FE01849283120688842D5
:1004500001D1801518E015493C312068884201D14E
:10046000801411E0114950312068884202D14FF4C4
:10047000803009E00D4964312068884202D14FF490
:10048000801001E04FF08070084908394860012071
:1004900084F8210000BF002084F8200000BF606BBA
:1004A00010B12046616B8847284670BD08000240A5
:1004B0002DE9F8470346002294466EE14FF001080B
:1004C00008FA02F4D1F8008008EA0400A0427DD1C5
:1004D000DFF8DCA2D1F80480A8EB0A09D0453AD0B5
:1004E00014DCB8F1030F50D009DCB8F1000F31D0A3
:1004F000B8F1010F1CD0B8F1020F49D120E0B8F1DA
:10050000110F18D0B8F1120F42D11EE0B9F5881FB3
:1005100025D006DCB9F5803F20D0B9F5801F37D152
:100520001AE0B9F5001F18D0B9F5041F30D117E053
:10053000D1F80CC02DE0D1F80C8008F1040C28E0B3
:10054000D1F80C8008F1080C23E0D1F80C8008F1F8
:100550000C0C1EE000BF00BF00BF00BF00BF00BF0B
:10056000D1F80880B8F1000F02D14FF0040C0BE075
:10057000D1F80880B8F1010F03D14FF0080C1C61CD
:1005800002E04FF0080C5C6103E04FF0000C00E06B
:1005900000BF00BFFF2801D8984601E003F104081E
:1005A0004646FF2802D84FEA820803E0A2F1080875
:1005B0004FEA88084746D6F800804FF00F0909FA3D
:1005C00007F928EA09080CFA07F900E088E048EA88
:1005D0000908C6F80080D1F8048008F08058B8F106
:1005E000805F7DD100BFDFF8CC81D8F8188048F05B
:1005F0000108DFF8C091C9F81880C846D8F81880FB
:1006000008F00108CDF8008000BF00BF4FEAB938FC
:100610004FEA920958F829504FEA82784FEA187940
:100620004FF00F0808FA09F825EA0805DFF8888175
:10063000434502D14FF0000816E0DFF880814345C2
:1006400002D14FF001080FE0DFF87481434502D179
:100650004FF0020808E0DFF86C81434502D14FF00B
:10066000030801E04FF004084FEA82794FEA197954
:1006700008FA09F848EA0505DFF84C814FEA9209C3
:1006800048F82950D1F8048008F48038B8F5803F44
:100690000AD1DFF83881D8F8008048EA0008DFF88E
:1006A0002C91C9F8008009E0DFF82081D8F800809B
:1006B00028EA0008DFF81491C9F80080D1F8048016
:1006C00008F40038B8F5003F10D1DFF8008108F1D8
:1006D0000408D8F8008048EA0008DFF8F09000E04D
:1006E0005AE009F10409C9F800800DE0DFF8DC8068
:1006F00008F10408D8F8008028EA0008DFF8CC9058
:1007000009F10409C9F80080D1F8048008F48018C0
:10071000B8F5801F0ED1DFF8B48008F10808D8F8CA
:10072000008048EA0008DFF8A49009F10809C9F838
:1007300000800DE0DFF8948008F10808D8F8008008
:1007400028EA0008DFF8849009F10809C9F8008058
:10075000D1F8048008F40018B8F5001F0ED1DFF8B6
:100760006C8008F10C08D8F8008048EA0008DFF82F
:100770005C9009F10C09C9F800800DE0DFF84C80AD
:1007800008F10C08D8F8008028EA0008DFF83C904F
:1007900009F10C09C9F80080521CD1F8008028FA30
:1007A00002F8B8F1000F7FF489AEBDE8F8870000C9
:1007B000000011100010024000080140000C014030
:1007C00000100140001401400800014000040140F5
:1007D00010B5C26821EA020302EA010443EA0443B5
:1007E000036110BD0AB1016101E00B0403617047B0
:1007F00001480068704700003C0000200348006882
:100800000349097808440149086070473C0000200A
:100810004400002010B50848006840F01000064968
:100820000860032000F09EF80F2000F007F800F0A9
:100830002BF8002010BD00000020024070B50446D7
:100840000E4800784FF47A71B1FBF0F00C4909685A
:10085000B1FBF0F5284600F001FC08B1012070BDA5
:10086000102C07D200222146501E00F03DF805480A
:10087000046001E00120F2E70020F0E744000020DE
:10088000480000204000002008B500BF0D488069E6
:1008900040F001000B4988610846806900F00100C2
:1008A000009000BF00BF00BF0846C06940F0805004
:1008B000C8610846C06900F08050009000BF00BFCA
:1008C00008BD00000010024001460846002809DB70
:1008D00000F01F0301229A4043099B0003F1E0232B
:1008E000C3F8002100BF70472DE9F05F80460D4638
:1008F0001646002701F04AFB074639462A4633468A
:1009000001F00700C0F1070ABAF1040F02D94FF055
:10091000040A01E0C0F1070AD14600F1040ABAF165
:10092000070F02D24FF0000A01E0A0F1030AD446FB
:100930004FF0010A0AFA09FAAAF1010A0AEA020AC0
:100940000AFA0CFA4FF0010B0BFA0CFBABF1010B9E
:100950000BEA030B4AEA0B042146404601F01EFB5A
:10096000BDE8F09F00BF00F00702064B19684FF684
:10097000FF031940044B0B4343EA0221014B19606A
:1009800000BF70470CED00E00000FA0570B50446AA
:100990000D460CB9012070BD5A48006800F00700F0
:1009A000A8420ED25748006820F007002843554956
:1009B00008600846006800F00700A84201D0012046
:1009C000E9E7207800F0020002281DD1207800F02D
:1009D0000400042805D14C48406840F4E0604A49CE
:1009E0004860207800F00800082805D14648406893
:1009F00040F46050444948604348406820F0F000AB
:100A0000A168084340494860207800F0010078B3AD
:100A10006068012806D13C48006800F4003090B9B5
:100A20000120B8E76068022806D13748006800F066
:100A3000007040B90120AEE73348006800F00200C2
:100A400008B90120A7E73048406820F0030061683A
:100A500008432D494860FFF7CBFE064609E0FFF743
:100A6000C7FE801B41F28831884202D9032092E7F9
:100A700007E02548406800F00C006168B0EB810F8A
:100A8000EDD12048006800F00700A8420ED91D48AB
:100A9000006820F0070028431A49086008460068EB
:100AA00000F00700A84201D0012074E7207800F090
:100AB0000400042807D11448406820F4E060E1688D
:100AC000084311494860207800F00800082808D140
:100AD0000D48406820F46050216940EAC1000A498D
:100AE000486000F03FF808494968C1F30311074A1C
:100AF000515CC8400649086006480068FFF79EFE42
:100B0000002048E700200240001002402820000892
:100B100048000020400000200148006870470000A5
:100B20004800002000B5FFF7F7FF04494968C1F30A
:100B30000221034A515CC84000BD00000010024081
:100B40003820000800B5FFF7E7FF04494968C1F302
:100B5000C221034A515CC84000BD000000100240A1
:100B600038200008F0B585B00FF26C0C9CE8E0105E
:100B700001A8A0E8E0101CA52D6800950021002226
:100B8000002300240020194D696801F00C05F5B11F
:100B9000042D02D0082D19D101E0154819E001AD4E
:100BA000C1F38346AC5D01F4803555B10F4D6D68DE
:100BB000C5F340451DF805200D4D6543B5FBF2F327
:100BC00002E00C4D04FB05F3184602E000BF0848A4
:100BD00000BF00BF05B0F0BD020304050607080909
:100BE0000A0B0C0D0E0F1010010200000010024045
:100BF00000127A0000093D00F8B504460CB9012046
:100C0000F8BD207800F00100002878D0F84840684E
:100C100000F00C0004280CD0F548406800F00C00EF
:100C2000082811D1F248406800F48030B0F5803FC8
:100C30000AD1EF48006800F4003000285FD06068F7
:100C400000285CD10120DBE700BF6068B0F5803F81
:100C500006D1E748006840F48030E549086028E0A4
:100C6000606858B9E248006820F48030E0490860C4
:100C70000846006820F4802008601AE06068B0F53B
:100C8000A02F0BD1DA48006840F48020D8490860D2
:100C90000846006840F4803008600AE0D4480068E4
:100CA00020F48030D24908600846006820F4802093
:100CB000086000BF606888B1FFF79AFD054606E04E
:100CC000FFF796FD401B642801D9032098E7C84828
:100CD000006800F400300028F2D010E0FFF788FD33
:100CE000054606E0FFF784FD401B642801D9032078
:100CF00086E7BF48006800F400300028F2D1207871
:100D000000F00200022857D1B948406800F00C00FA
:100D100050B1B748406800F00C00082818D1B4481A
:100D2000406800F4803098B9B148006800F00200D3
:100D300020B12069012801D0012061E7AC4800689A
:100D400020F0F800616940EAC100A949086033E079
:100D50002069E8B10120A7490860FFF749FD054671
:100D600006E0FFF745FD401B022801D9032047E7B5
:100D70009F48006800F002000028F2D09C480068FC
:100D800020F0F800616940EAC1009949086013E069
:100D9000002098490860FFF72BFD054606E0FFF7A5
:100DA00027FD401B022801D9032029E7904800684D
:100DB00000F002000028F2D1207800F00800082896
:100DC0002DD1A069B8B101208B490860FFF710FD53
:100DD000054606E0FFF70CFD401B022801D9032061
:100DE0000EE78348406A00F002000028F2D001209C
:100DF00000F080FE13E000207F490860FFF7F8FC58
:100E0000054606E0FFF7F4FC401B022801D9032049
:100E1000F6E67748406A00F002000028F2D1207818
:100E200000F00400042873D100277148C06900F065
:100E3000805070B900BF6E48C06940F080506C4966
:100E4000C8610846C06900F08050009000BF00BF34
:100E500001276A48006800F48070B0B967480068EC
:100E600040F4807065490860FFF7C2FC054606E063
:100E7000FFF7BEFC401B642801D90320C0E65F4891
:100E8000006800F480700028F2D000BFE0680128FC
:100E900006D15748006A40F001005549086227E032
:100EA000E06858B95248006A20F0010050490862D1
:100EB0000846006A20F00400086219E0E06805288E
:100EC0000BD14B48006A40F00400494908620846CB
:100ED000006A40F0010008620AE04548006A20F01C
:100EE0000100434908620846006A20F004000862D5
:100EF00000BFE068A0B1FFF77BFC054609E0FFF703
:100F000077FC401B41F28831884202D9032077E602
:100F100022E03748006A00F002000028EFD012E01B
:100F2000FFF766FC054608E0FFF762FC401B41F254
:100F30008831884201D9032062E62D48006A00F01A
:100F400002000028F0D1012F05D12948C06920F006
:100F500080502749C86100BFE069C8B32448406891
:100F600000F00C00082860D0E069022848D1002079
:100F700020490866FFF73CFC054606E0FFF738FC11
:100F8000401B022801D903203AE61948006800F006
:100F900000700028F2D1206AB0F5803F07D11448D4
:100FA000406820F40030A168084311494860D4E942
:100FB000080108430E49496821F4741108430C499B
:100FC000486001200B490866FFF712FC054607E060
:100FD0003DE0FFF70DFC401B022801D903200FE67E
:100FE0000348006800F000700028F2D02FE00000F5
:100FF0000010024000004242800442420070004063
:10100000002014490866FFF7F3FB054606E0FFF7EA
:10101000EFFB401B022801D90320F1E50E480068D0
:1010200000F000700028F2D111E0E069012800D141
:10103000E6E50948466806F48031206A814204D119
:1010400006F47011606A814201D00120D8E50020C9
:10105000D6E50000000042420010024070B5044690
:101060002546681EB0F1807F01D301200FE0681E85
:101070004FF0E02148610F214FF0FF3000F08EFF6C
:1010800000204FF0E021886107200861002070BD3A
:101090007047704730B502460B4600BF92F83C00DF
:1010A000012801D1022030BD012082F83C0000BFA0
:1010B000022082F83D00106844681068816824F0BE
:1010C00070041868044310684460104D1068A8420A
:1010D0000BD01068B0F1804F07D00D4D1068A842BA
:1010E00003D00C4D1068A84205D121F0800158684A
:1010F000014310688160012082F83D0000BF00209C
:1011000082F83C0000BF00BFCDE70000002C01408A
:10111000000400400008004010B504460CB901204E
:1011200010BD94F83D0028B9002084F83C0020460A
:1011300000F026F8022084F83D00211D206800F010
:101140002DFD012084F8460000BF84F83E000121F7
:101150003F200155402001554120015500BF00BFEF
:10116000012084F8420043200155442001554520C8
:10117000015500BF012084F83D000020D0E70000A9
:1011800038B504460D492068884215D100BF0C4887
:10119000806940F400600A4988610846806900F46B
:1011A0000060009000BF00BF002211461920FFF729
:1011B0009BFB1920FFF788FB38BD0000002C014085
:1011C00000100240014691F83D00012801D00120A5
:1011D0007047022081F83D000868C06840F00100B7
:1011E0000B68D860124B086898420BD00868B0F1C1
:1011F000804F07D00F4B0868984203D00E4B086809
:1012000098420CD10868806800F00702062A0CD0CA
:101210000868006840F001000B68186005E0086885
:10122000006840F001000B6818600020D0E7000063
:10123000002C014000040040000800402DE9F0416E
:1012400004460D4600BF94F83C00012802D102205C
:10125000BDE8F081012084F83C0000BF022084F842
:101260003D002068866826F0770626F47F462068D1
:1012700086602868502833D00CDC202850D004DC4D
:1012800000284BD0102851D149E0302849D04028BF
:101290004CD139E060282DD0702807D0B0F5805FA0
:1012A00003D0B0F5005F41D10DE040E0D5E9021375
:1012B0006A68206800F0ACFC2068866846F0770613
:1012C0002068866033E0D5E902136A68206800F080
:1012D0009FFC2068806840F480402168886026E098
:1012E000EA686968206800F0A7FC5021206800F0D7
:1012F0009AFC1CE0EA686968206800F0B0FC602194
:10130000206800F090FC12E0EA686968206800F04C
:1013100093FC4021206800F086FC08E000BF00BF7D
:1013200000BF2968206800F07EFC00E000BF00BF1D
:10133000012084F83D0000BF002084F83C0000BF7D
:1013400000BF85E7704710B5044620680069C0F308
:101350004000D8B12068C068C0F34000B0B16FF061
:10136000020021680861012020772068806900F070
:10137000030018B12046FFF7E5FF05E0204600F026
:10138000ADF8204600F0ABF8002020772068006917
:10139000C0F38000D8B12068C068C0F38000B0B14D
:1013A0006FF00400216808610220207720688069BE
:1013B00000F4407018B12046FFF7C4FF05E0204656
:1013C00000F08CF8204600F08AF800202077206892
:1013D0000069C0F3C000D8B12068C068C0F3C00085
:1013E000B0B16FF008002168086104202077206800
:1013F000C06900F0030018B12046FFF7A3FF05E025
:10140000204600F06BF8204600F069F800202077B5
:1014100020680069C0F30010D8B12068C068C0F32C
:101420000010B0B16FF0100021680861082020772B
:101430002068C06900F4407018B12046FFF782FFB1
:1014400005E0204600F04AF8204600F048F8002069
:1014500020772068006900F0010058B12068C0685A
:1014600000F0010030B16FF00100216808612046F2
:1014700000F036F820680069C0F3C01058B1206849
:10148000C068C0F3C01030B16FF0800021680861FF
:101490002046FFF7FDFD20680069C0F3801058B1B9
:1014A0002068C068C0F3801030B16FF04000216840
:1014B0000861204600F02CF820680069C0F3401055
:1014C00058B12068C068C0F3401030B16FF0200000
:1014D000216808612046FFF7DCFD10BD70477047AA
:1014E00010B5044608480078401C074908700846B3
:1014F0000078642806D1002008704FF4005103489A
:10150000FFF766F910BD000029000020001001401F
:1015100070477047704700002DE9F84F0446206877
:1015200005682068C668206847694FF00009CA4608
:1015300005F00F09B9F1000F0AD105F0200038B10C
:1015400006F0200020B1204600F0D2FBBDE8F88F65
:10155000B9F1000F71D007F0010018B906F49070CE
:1015600000286AD005F0010030B106F4807018B18F
:10157000206C40F00100206405F0040030B107F059
:10158000010018B1206C40F00200206405F0020058
:1015900030B107F0010018B1206C40F00400206465
:1015A00005F0080048B106F0200010B907F001006E
:1015B00018B1206C40F008002064206C68B305F07E
:1015C000200028B106F0200010B1204600F090FB6A
:1015D00020684069C0F3801A206C00F0080010B940
:1015E000BAF1000F22D0204600F057FB2068406976
:1015F00000F04000B0B12068406920F04000216850
:101600004861A06B50B15648A16B4863A06BFEF7D0
:10161000F7FE10B1A06B416B88470CE02046FFF746
:1016200079FF08E02046FFF775FF04E02046FFF74A
:1016300071FF0020206489E7FFE7206B012878D143
:1016400005F01000002874D006F01000002870D0BB
:1016500000BF00200090206800680090206840686B
:10166000009000BF00BF2068406900F04000C0B398
:10167000A06B006840681FFA80F8B8F1000F2FD007
:10168000A08D40452CDDA4F82E80A06B8069202819
:101690001FD02068C06820F480702168C86020686E
:1016A000406920F00100216848612068406920F00D
:1016B000400021684861202084F83E00002020631B
:1016C0002068C06820F010002168C860A06BFEF799
:1016D0006BFEA08DE28D801A81B22046FFF719FFC4
:1016E00034E7FFE7A08DE18D401A1FFA80F8E08D06
:1016F000E8B1B8F1000F1AD02068C06820F49070EB
:101700002168C8602068406920F0010021684861B4
:10171000202084F83E00002020632068C06820F06C
:1017200010002168C86041462046FFF7F2FE0DE731
:10173000FFE705F0800030B106F0800018B12046C8
:1017400000F0E9FB02E705F0400030B106F0400090
:1017500018B1204600F0BCFAF8E600BFF6E600003B
:10176000871C000810B504460CB9012010BDA06903
:1017700000B100E000BF94F83D0028B9002084F8D3
:101780003C00204600F028F8242084F83D00206822
:10179000C06820F400502168C860204600F01AFBA1
:1017A0002068006920F49040216808612068406941
:1017B00020F02A00216848612068C06840F4005089
:1017C0002168C86000202064202084F83D0084F84F
:1017D0003E000020CAE7000010B586B00446002095
:1017E00002900390049005902249206888423ED1DF
:1017F00000BF2148806940F480401F498861084645
:10180000806900F48040019000BF00BF00BF08461F
:10181000806940F0080088610846806900F008008F
:10182000019000BF00BF40200290022003900320DF
:10183000059002A91148FEF73BFE8020029000208F
:101840000390049002A90D48FEF732FE00BF0C4938
:10185000486840F0E06040F00400486000BF0022AB
:1018600011462520FFF740F82520FFF72DF806B098
:1018700010BD00000038014000100240000C014083
:101880000000014070B504460D46164694F83E002F
:10189000202816D105B10EB9012070BD00BF94F803
:1018A0003C00012801D10220F7E7012084F83C0028
:1018B00000BF0020206332462946204600F008FB86
:1018C000EBE70220E9E7000010B504461048007875
:1018D000E8B9104800781049104A127888540F4827
:1018E0000078401C0D49087001220A490C48FFF796
:1018F000C9FF0A480078082809D100200749087064
:101900000548C079FF2802D101200149087010BDA7
:10191000320000200E0000201000002020000020D7
:1019200094000020704700BFFEE7000000B585B0BE
:101930000020019002900390049000BF3C48806911
:1019400040F010003A4988610846806900F01000B4
:10195000009000BF00BF00BF0846806940F0200033
:1019600088610846806900F02000009000BF00BF39
:1019700000BF0846806940F004008861084680691D
:1019800000F00400009000BF00BF00BF084680695F
:1019900040F0080088610846806900F00800009067
:1019A00000BF00BF00224FF400512248FEF71AFF8B
:1019B000002241F6FF412048FEF714FF002243F6C3
:1019C00001411E48FEF70EFF4FF400500190012028
:1019D0000290002003900220049001A91548FEF710
:1019E00067FD41F6FF400190012002900020039026
:1019F0000220049001A91048FEF75AFD0120019031
:101A00000290002003900220049001A90B48FEF7E9
:101A10004FFD4FF470500190112002900020039070
:101A20000220049001A90548FEF742FD05B000BD63
:101A3000001002400010014000080140000C01406D
:101A400000B587B0002003900490059006900190A7
:101A5000029015481549086040F23F604860002137
:101A6000124881601821C16000210161416180211B
:101A70008161FFF751FB08B1FEF793FC4FF48050F2
:101A8000039003A90948FFF7D9FB08B1FEF789FCC9
:101A900000200190029001A90448FFF7FBFA08B169
:101AA000FEF77FFC07B000BD002C01404C00002079
:101AB00010B50B480B4908604FF4165048600021E0
:101AC00008488160C16001610C2141610021816190
:101AD000C161FFF747FE08B1FEF763FC10BD0000CF
:101AE000003801409400002000BFFEE700BFFEE781
:101AF0007047000008B508490968C9084FF47A72B0
:101B0000B1FBF2F14143009100BF00BF00994A1EB2
:101B100000920029F9D108BD48000020704710B597
:101B2000FEF76CFE10BD00B58FB0282105A8FEF7AA
:101B30004BFB14216846FEF747FB0120059000048B
:101B40000690400007900120099002200C90C103EC
:101B50000D9100210E9105A8FFF74EF808B1FEF790
:101B600020FC0F20009002200190002002904FF4F2
:101B7000806003900020049000216846FEF706FF75
:101B800008B1FEF70EFC0FB000BD704710B502485B
:101B9000FFF7D9FB10BD00004C00002010B5026813
:101BA000184B984208D0B0F1804F05D0164B9842A0
:101BB00002D0164B984203D122F070024B681A43B0
:101BC000104B984208D0B0F1804F05D00E4B984290
:101BD00002D00E4B984203D122F44072CB681A43D4
:101BE00022F080034C6943EA040202608B68C362FE
:101BF0000B688362034B984201D10B690363012395
:101C0000436110BD002C014000040040000800406A
:101C100030B50C46816821F47F4142EA0325254313
:101C20002943816030BD0A46816821F0700142F08D
:101C3000070319438160704730B50B461446026AAA
:101C4000056A25F001050562816921F0F00141EA8C
:101C5000041122F00A021A438161026230BD30B5DC
:101C60000B461446056A25F0100505628169026A73
:101C700021F4704141EA043122F0A00242EA031249
:101C80008161026230BD70B505466C6A0020E08556
:101C9000E0842046FFF73EFC70BD0168C96821F46E
:101CA00090710268D1600168496921F00101026800
:101CB0005161016B012905D10168C96821F010014A
:101CC0000268D160202180F83E1000210163704736
:101CD00010B504462068C06820F040002168C86044
:101CE000202084F83D002046FFF71CFE002010BD98
:101CF000F8B5044694F83E00222869D1A068B0F5F2
:101D0000805F0CD1206950B90025A66A2068406820
:101D1000C0F308003080A06A801CA06215E0A56AAC
:101D20000026A068B0F5805F03D0A06828B92069BC
:101D300018B920684068287004E02068406800F006
:101D40007F002870A06A401CA062E08D401E80B217
:101D5000E085A8BB2068C06820F020002168C8602A
:101D60002068C06820F480702168C86020684069DD
:101D700020F0010021684861202084F83E00206B9B
:101D800001281ED1002020632068C06820F01000C8
:101D90002168C8602068006800F0100010280AD18F
:101DA00000BF002000902068006800902068406814
:101DB000009000BF00BFA18D2046FFF7AAFB03E003
:101DC00004E02046FFF780FD0020F8BD0020FCE77E
:101DD0000220FAE770B504462168096921F44051F0
:101DE000E2681143226811612269A16811436269A6
:101DF00041EA02052168C96841F20C629143294316
:101E00002268D1602168496921F44071A2691143B7
:101E1000226851612D4A2168914202D1FEF792FE5B
:101E200001E0FEF77FFE00EBC00101EB00116268EC
:101E30009200B1FBF2F100EBC00202EB001263680A
:101E40009B00B2FBF3F26423B2FBF3F202EBC2039A
:101E500003EB0212A1EB8201322202EB0111642298
:101E6000B1FBF2F101F0F00100EBC00202EB001255
:101E700063689B00B2FBF3F26423B2FBF3F201EB65
:101E8000021200EBC00101EB001163689B00B1FB83
:101E9000F3F100EBC00303EB00136668B600B3FB7D
:101EA000F6F36426B3FBF6F303EBC30606EB03136A
:101EB000A1EB8301322303EB01116423B1FBF3F1A6
:101EC00001F00F0111442268916070BD003801409B
:101ED00010B5034699629A85DA850020186422209D
:101EE00083F83E0000BF002083F83C0000BF186864
:101EF000C06840F480701C68E0601868406940F079
:101F000001001C6860611868C06840F020001C680F
:101F1000E060002010BD014691F83D00212828D145
:101F20008868B0F5805F0BD1086948B90A6A1088E3
:101F3000C0F308000B685860086A801C086205E05E
:101F40000B6A581C086218780B685860C88C401ED1
:101F500080B2C88458B90868C06820F080000B6857
:101F6000D8600868C06840F040000B68D860002066
:101F700070470220FCE7000010B50248FFF7CCFADA
:101F800010BD00009400002000BFFEE7024800687A
:101F9000C0F30220704700000CED00E010B50028EF
:101FA00004DB0A07130E054A135406E00A07140E51
:101FB000034A00F00F031B1FD45410BD00E400E0DF
:101FC00018ED00E00CB508490968084AB1FBF2F1C8
:101FD000414307480091416801914168019A891A7B
:101FE000009A9142F9D30CBD4800002040420F00F6
:101FF000001000E0FEF70EFCFEF74CF9FFF793FD32
:10200000FFF794FCFFF71CFDFFF752FD0548FFF7B3
:10201000D9F800BF00BF00BF00BF00BF00BF00BFB6
:10202000FEE700004C00002000000000000000005F
:10203000010203040607080900000000010203046E
:1020400060200008000000204C000000280100086B
:10205000AC2000084C000020EC0600004401000801
:10206000000000000000000000000000010000006F
:102070000000000000000000000000000000000060
:1020800000000000000000000000011704110A1009
:10209000020100000000000000000000000000003D
:0C20A00010000000010000000024F4000B
:04000005080000ED02
:00000001FF
